:020000020000FC
:020000000EC030
:10001C002BC008E00EBF0FE50DBF90E0C0E000273D
:10002C0000BD03E209B906E800BD08E10AB90FEF0B
:10003C0007BB08BB002701BB0ABB01E20BBD00ECF0
:10004C000ABD0CE00EBD00E109BF002787E020E0EF
:10005C0030E010E040E050E060E07894FFCFB8BBB7
:10006C00089596D0C0E009C07FB77AD01FD0BAD01F
:10007C00903029F0C395C530A1F37FBF189501D0FE
:10008C00F9CF09B30E3F59F4913049F080FF03C00A
:10009C0080FD03C00895816008958E7F877F089549
:1000AC00939506E0091307C090E005C009B30D3F16
:1000BC00B9F30E3FB1F1BFEFD2DF9030C1F0BFE525
:1000CC00CEDF9130A1F0BFE6CADF923081F0B7E706
:1000DC00C6DF933061F0BFE1C2DF943041F0BFE284
:1000EC00BEDF953021F0B7E3BADF963001F008950A
:1000FC0043954A3549F04295403A20F04F7043956C
:10010C004295089542950895442753955A3559F0D0
:10011C005295503A20F05F70539552950895529530
:10012C00089527D0C8CF55276395643239F062956E
:10013C00603A40F06F7063956295089511275527CA
:10014C0066270895629508953CD021C02DD01FC01C
:10015C001FD01DC0E8DF1BC0D7DF19C0C9DF17C017
:10016C0081FF06C0631721F4521711F488600895BB
:10017C000895903061F0913039F3923039F3933027
:10018C0039F3943039F3953039F3963039F393CF02
:10019C0013951A3549F01295103A20F01F701395EB
:1001AC001295089512950895112723952A3549F033
:1001BC002295203A20F02F702395229508952295B0
:1001CC00089522273395343239F03295303A40F085
:1001DC003F703395329508951127222733270895C0
:1001EC00329508959430F4F4032F02950F703CD09F
:1001FC0037D0032F0F7038D033D0022F02950F70E9
:10020C0033D02ED0022F0F702FD02AD0012F029571
:10021C000F702AD025D0012F0F7026D021D0082F97
:10022C001FD00895062F02950F701ED019D0062FDF
:10023C000F701AD015D0052F02950F7015D010D055
:10024C00052F0F7011D00CD0042F02950F700CD00D
:10025C0007D0042F0F7008D003D0082F01D0E1CFA6
:10026C005D9BFECF0CB90895003099F0013099F0E8
:10027C00023099F0033099F0043099F0053099F080
:10028C00063099F0073099F0083099F0093099F060
:10029C00089507E7089504E208950DE508950DE625
:1002AC0008950EE208950BE608950BE7089505E214
:0A02BC0008950FE708950FE6089576
:00000001FF
